:100000000C942A000C9447000C9447000C94470071
:100010000C9447000C9447000C9447000C94470044
:100020000C9447000C9447000C9447000C94470034
:100030000C9447000C9447000C9447000C94470024
:100040000C9447000C9447000C9447000C94470014
:100050000C94470011241FBECFE5D8E0DEBFCDBF12
:1000600011E0A0E6B0E0EEE0F7E302C005900D92EB
:10007000AE38B107D9F711E0AEE8B1E001C01D928A
:10008000A239B107E1F70E94A0150C94851B0C94CE
:100090000000EF92FF920F931F937B018C0120E0F1
:1000A00030E040E05FE40E94F50388238CF0C80153
:1000B000B70120E030E040E05FE40E94C1010E940F
:1000C000B3049B01AC01205030404040504806C072
:1000D000C801B7010E94B3049B01AC01B901CA0178
:1000E0001F910F91FF90EF900895A0E0B0E0EBE733
:1000F000F0E00C949B17DC012B01FA019C919230EB
:1001000008F439C1EB018881823008F433C194309E
:1001100069F4843009F02FC111969C91119789815F
:10012000981709F428C1A0E8B0E025C1843009F48B
:1001300021C18230A9F4923009F01DC19A01AD01AC
:1001400088E0EA010990AE01E90109929E0181501F
:10015000C1F7E201898111969C918923818308C1AD
:10016000923009F407C112962D903C901397EB0141
:100170008A819B811496AD90BD90CD90DC901797AD
:10018000EC80FD800E811F819101281B390BB90184
:1001900037FF04C066277727621B730B6032710537
:1001A0000CF061C0121613066CF537014801062EDB
:1001B00004C096948794779467940A94D2F721E0C8
:1001C00030E040E050E004C0220F331F441F551FB1
:1001D0006A95D2F721503040404050402E213F21B7
:1001E00040235123211531054105510521F021E01E
:1001F00030E040E050E079018A01E628F72808293C
:1002000019293CC0232BD1F1260E371E350146019A
:10021000062E04C096948794779467940A94D2F734
:1002200021E030E040E050E004C0220F331F441FC3
:10023000551F6A95D2F721503040404050402A2146
:100240003B214C215D21211531054105510521F04E
:1002500021E030E040E050E059016A01A628B728CB
:10026000C828D9280BC0821593052CF01C01AA249C
:10027000BB24650103C0EE24FF24870111969C91E5
:10028000D20111968C91981709F445C0992339F041
:10029000A80197012A193B094C095D0906C0A6016E
:1002A00095012E193F09400B510B57FD08C01182D3
:1002B0003382228224833583468357831DC081E0A5
:1002C00081833382228288279927DC01821B930B4A
:1002D000A40BB50B84839583A683B7830DC0220F2F
:1002E000331F441F551F24833583468357838281E0
:1002F000938101979383828324813581468157813D
:10030000DA01C9010197A109B1098F5F9F4FAF4F72
:10031000BF4328F30BC0918333822282EA0CFB1C7B
:100320000C1D1D1DE482F5820683178383E0808304
:10033000248135814681578157FF1AC0C901AA27F8
:1003400097FDA095BA2F81709070A070B0705695EF
:10035000479537952795822B932BA42BB52B848318
:100360009583A683B7838281938101969383828349
:10037000DF0101C0D201CD01CDB7DEB7E2E10C94BF
:10038000B717A0E2B0E0E7ECF1E00C94A71769839F
:100390007A838B839C832D833E834F835887E9E048
:1003A000EE2EF12CEC0EFD1ECE010196B7010E943F
:1003B000A4068E010F5E1F4FCE010596B8010E9464
:1003C000A4068A8991E089278A8BC701B801AE010A
:1003D000475E5F4F0E9475000E94CF05A096E6E041
:1003E0000C94C317A0E2B0E0E8EFF1E00C94A7177B
:1003F00069837A838B839C832D833E834F835887C5
:10040000F9E0EF2EF12CEC0EFD1ECE010196B701A6
:100410000E94A4068E010F5E1F4FCE010596B80103
:100420000E94A406C701B801AE01475E5F4F0E945B
:1004300075000E94CF05A096E6E00C94C317A0E2D9
:10044000B0E0E5E2F2E00C949B1769837A838B833A
:100450009C832D833E834F835887CE010196BE0136
:10046000675F7F4F0E94A406CE010596BE016F5EB6
:100470007F4F0E94A4069985923088F08989823046
:10048000C8F0943019F4823051F404C0843029F457
:10049000923081F480E890E0C6C0923049F420E0C8
:1004A0009A858A89981321E02A87CE010996BBC0D4
:1004B000823049F420E09A858A89981321E02A8BBA
:1004C000CE014196B0C02D843E844F8458886D88FB
:1004D0007E888F88988CEE24FF248701AA24BB2471
:1004E000650140E050E060E070E0E0E0F0E0C10174
:1004F00081709070892BE9F0E60CF71C081D191D1E
:100500009A01AB012A0D3B1D4C1D5D1D80E090E062
:10051000A0E0B0E0E614F7040805190520F481E036
:1005200090E0A0E0B0E0BA01A901480F591F6A1F8E
:100530007B1FAA0CBB1CCC1CDD1C97FE08C081E0F5
:1005400090E0A0E0B0E0A82AB92ACA2ADB2A3196B6
:10055000E032F10549F0660C771C881C991C569412
:10056000479437942794C3CFFA85EA892B893C892D
:100570008B859C85280F391F2E5F3F4F17C0CA01FE
:1005800081709070892B61F016950795F794E79428
:1005900080E090E0A0E0B0E8E82AF92A0A2B1B2BC3
:1005A00076956795579547952F5F3F4F77FDE7CF36
:1005B0000CC0440F551F661F771F17FD4160EE0CDE
:1005C000FF1C001F111F21503040403090E05907A0
:1005D00090E0690790E4790760F32B8F3C8FDB0193
:1005E000CA018F779070A070B07080349105A1051A
:1005F000B10561F447FD0AC0E114F10401051105DC
:1006000029F0405C5F4F6F4F7F4F40781A8EFE1786
:1006100011F081E08A8F4D8F5E8F6F8F78A383E01A
:10062000898FCE0149960E94CF05A096E2E10C94F5
:10063000B717A8E1B0E0EFE1F3E00C94A3176983EA
:100640007A838B839C832D833E834F835887B9E0C5
:10065000EB2EF12CEC0EFD1ECE010196B7010E948F
:10066000A4068E010F5E1F4FCE010596B8010E94B1
:10067000A4062985223008F47EC03989323010F46E
:10068000B8017CC08A859A8989278A87243011F02D
:10069000223031F4231709F06EC060E870E06EC0BC
:1006A000343039F41D861E861F86188A1C861B86E8
:1006B00004C0323021F484E08987B7015FC02B8504
:1006C0003C858B899C89281B390B3C872B87ED84C3
:1006D000FE840F851889AD88BE88CF88D88CEA142F
:1006E000FB040C051D0540F4EE0CFF1C001F111F40
:1006F000215030403C872B8720E030E040E050E044
:1007000080E090E0A0E0B0E460E070E0EA14FB0478
:100710000C051D0540F0282B392B4A2B5B2BEA18C2
:10072000FB080C091D09B695A79597958795EE0CC2
:10073000FF1C001F111F6F5F7F4F6F31710531F775
:10074000DA01C9018F779070A070B0708034910584
:10075000A105B10561F427FD0AC0E114F10401050A
:10076000110529F0205C3F4F4F4F5F4F20782D87B8
:100770003E874F87588BBE01675F7F4FCB010E943A
:10078000CF056896EAE00C94BF17A8E1B0E0EBEC67
:10079000F3E00C94A71769837A838B839C832D8362
:1007A0003E834F83588789E0E82EF12CEC0EFD1E26
:1007B000CE010196B7010E94A4068E010F5E1F4F65
:1007C000CE010596B8010E94A4068985823040F0CA
:1007D0008989823028F0C701B8010E941C0701C036
:1007E0008FEF6896E6E00C94C317A8E1B0E0EBEF5A
:1007F000F3E00C94A71769837A838B839C832D8302
:100800003E834F83588789E0E82EF12CEC0EFD1EC5
:10081000CE010196B7010E94A4068E010F5E1F4F04
:10082000CE010596B8010E94A4068985823040F069
:100830008989823028F0C701B8010E941C0701C0D5
:100840008FEF6896E6E00C94C317A8E1B0E0EBE206
:10085000F4E00C94A71769837A838B839C832D83A0
:100860003E834F83588789E0E82EF12CEC0EFD1E65
:10087000CE010196B7010E94A4068E010F5E1F4FA4
:10088000CE010596B8010E94A4068985823040F009
:100890008989823028F0C701B8010E941C0701C075
:1008A00081E06896E6E00C94C317A8E0B0E0EBE5C1
:1008B000F4E00C94A4179B01AC0183E08983DA0176
:1008C000C9018827B7FD83959927AA27BB27B82E8A
:1008D000211531054105510519F482E089833AC09B
:1008E0008823A9F0203080E0380780E0480780E8BE
:1008F000580729F460E070E080E09FEC30C0EE24FF
:10090000FF248701E21AF30A040B150B02C07901D8
:100910008A018EE1C82ED12CDC82CB82ED82FE8250
:100920000F831887C801B7010E9480050197181628
:10093000190684F4082E04C0EE0CFF1C001F111FC2
:100940000A94D2F7ED82FE820F831887C81AD90A5B
:10095000DC82CB82BA82CE0101960E94CF05289616
:10096000E9E00C94C017ACE0B0E0E9EBF4E00C94E3
:10097000AB1769837A838B839C83CE010196BE017A
:100980006B5F7F4F0E94A4068D81823061F18230BF
:1009900050F1843021F48E81882351F12EC02F81B3
:1009A000388537FD20C06E812F3131051CF066235C
:1009B000F9F023C08EE190E0821B930B29853A85E4
:1009C0004B855C8504C056954795379527958A9544
:1009D000D2F76623B1F050954095309521953F4F61
:1009E0004F4F5F4F0EC020E030E040E050E009C0C4
:1009F0002FEF3FEF4FEF5FE704C020E030E040E033
:100A000050E8B901CA012C96E2E00C94C717A8E09F
:100A1000B0E0EDE0F5E00C94A3177B018C016115CB
:100A200071058105910519F482E0898360C083E036
:100A300089838EE1C82ED12CDC82CB82ED82FE82AE
:100A40000F831887C801B7010E948005FC01319708
:100A5000F7FF3BC0222733272E1B3F0B57016801AE
:100A6000022E04C0D694C794B794A7940A94D2F7E0
:100A700040E050E060E070E081E090E0A0E0B0E0B5
:100A800004C0880F991FAA1FBB1F2A95D2F7019790
:100A9000A109B1098E219F21A023B1230097A105AF
:100AA000B10521F041E050E060E070E04A295B29A7
:100AB0006C297D294D835E836F8378878EE190E07A
:100AC0008E1B9F0B9C838B8312C0309781F00E2E60
:100AD00004C0EE0CFF1C001F111F0A94D2F7ED8218
:100AE000FE820F831887CE1ADF0ADC82CB821A823D
:100AF000CE0101960E94CF052896EAE00C94BF171C
:100B0000EF92FF920F931F937B018C0180E0E81618
:100B100080E0F80681E0080780E0180788F48FEF8E
:100B2000E816F1040105110531F028F088E090E0A5
:100B3000A0E0B0E017C080E090E0A0E0B0E012C01C
:100B400080E0E81680E0F80680E0080781E01807FA
:100B500028F088E190E0A0E0B0E004C080E190E0FF
:100B6000A0E0B0E020E230E040E050E0281B390B8C
:100B70004A0B5B0B04C016950795F794E7948A958A
:100B8000D2F7F701E857FF4F8081281B310941094F
:100B90005109C9011F910F91FF90EF900895DF92C5
:100BA000EF92FF920F931F93FC01E480F580068182
:100BB0001781D1808081823048F480E090E0A0E10C
:100BC000B0E0E82AF92A0A2B1B2BA5C0843009F4CF
:100BD0009FC0823021F4EE24FF24870105C0E11478
:100BE000F1040105110519F4E0E0F0E096C062811E
:100BF00073819FEF623879070CF05BC022E83FEF0A
:100C0000261B370B2A3131052CF020E030E040E084
:100C100050E02AC0B801A701022E04C0769567955E
:100C2000579547950A94D2F781E090E0A0E0B0E0B4
:100C300004C0880F991FAA1FBB1F2A95D2F70197DE
:100C4000A109B1098E219F21A023B1230097A105FD
:100C5000B10521F081E090E0A0E0B0E09A01AB01A5
:100C6000282B392B4A2B5B2BDA01C9018F77907027
:100C7000A070B07080349105A105B10539F427FF4B
:100C800009C0205C3F4F4F4F5F4F04C0215C3F4F76
:100C90004F4F5F4FE0E0F0E02030A0E03A07A0E0E7
:100CA0004A07A0E45A0710F0E1E0F0E079018A0178
:100CB00027C06038710564F5FB01E158FF4FD8018A
:100CC000C7018F779070A070B07080349105A10536
:100CD000B10539F4E7FE0DC080E490E0A0E0B0E09B
:100CE00004C08FE390E0A0E0B0E0E80EF91E0A1F18
:100CF0001B1F17FF05C016950795F794E7943196CB
:100D000087E016950795F794E7948A95D1F705C083
:100D1000EE24FF248701EFEFF0E06E2F6795662742
:100D20006795902F9F77D794DD24D7948E2F869543
:100D3000492F462B582F5D29B701CA011F910F91EA
:100D4000FF90EF90DF900895FC01DB01408151811D
:100D50002281622F6F7770E0221F2227221F93814A
:100D6000892F880F822B282F30E0991F9927991FF0
:100D700011969C93119721153105A9F5411551053F
:100D80006105710511F482E037C082E89FEF139688
:100D90009C938E9312979A01AB0167E0220F331F49
:100DA000441F551F6A95D1F783E08C930DC0220F25
:100DB000331F441F551F12968D919C9113970197D5
:100DC00013969C938E931297203080E0380780E032
:100DD000480780E4580758F314962D933D934D939C
:100DE0005C93179708952F3F310579F4411551050C
:100DF0006105710519F484E08C93089564FF03C0C4
:100E000081E08C9312C01C9210C02F573040139673
:100E10003C932E93129783E08C9387E0440F551FE9
:100E2000661F771F8A95D1F7706414964D935D9372
:100E30006D937C93179708951F93DC01FB019C91A0
:100E4000923008F447C08081823008F443C0943067
:100E500051F411961C91843099F58181682F70E0CE
:100E6000611B71093FC0843021F0923031F482302F
:100E7000B9F18181882389F12DC011961C911197B8
:100E80008230F1F081811817D9F412962D913C919E
:100E90001397828193818217930794F0281739075B
:100EA000BCF014968D919D910D90BC91A02D248144
:100EB000358146815781281739074A075B0718F49F
:100EC000112341F00AC082179307A407B50740F425
:100ED000112319F061E070E005C06FEF7FEF02C0F1
:100EE00060E070E0CB011F910895DF93CF93CDB701
:100EF000DEB7A7E2B0E0E7E2F0E0808180648C93A7
:100F0000A6E2B0E0E6E2F0E0808180688C93CF91C9
:100F1000DF910895DF93CF9300D00F92CDB7DEB766
:100F20009B838A8319828A819B81009719F481E0CF
:100F300089832BC0A6E2B0E0E6E2F0E08081806425
:100F40008C93E6E2F0E0808182958F70882F90E0AC
:100F5000817090700097A9F3E4E2F0E08081282F7F
:100F600030E0E5E2F0E08081882F90E0982F88273C
:100F7000822B932BEA81FB8191838083A6E2B0E0F0
:100F8000E6E2F0E0808180618C9389810F900F9080
:100F90000F90CF91DF910895DF93CF93CDB7DEB758
:100FA00027970FB6F894DEBF0FBECDBF8C836D833D
:100FB00082E08B838C81803210F01B82E2C08D81B5
:100FC000882331F08D81813019F081E08B83D9C085
:100FD0008C818695869586958A838C818770898396
:100FE0008A81282F30E03F832E838E819F8181303C
:100FF000910509F443C02E813F81223031052CF444
:101000008E819F81009771F0BCC02E813F8122307C
:10101000310509F45FC08E819F818330910509F409
:1010200085C0AFC08D818130A1F4ABE3B0E0EBE3CC
:10103000F0E08081482F8981282F30E081E090E026
:10104000022E02C0880F991F0A94E2F7842B8C931A
:1010500098C0ABE3B0E0EBE3F0E08081482F8981FA
:10106000282F30E081E090E0022E02C0880F991F07
:101070000A94E2F7809584238C9383C08D8181301C
:10108000A1F4A8E3B0E0E8E3F0E08081482F898193
:10109000282F30E081E090E0022E02C0880F991FD7
:1010A0000A94E2F7842B8C936CC0A8E3B0E0E8E3E9
:1010B000F0E08081482F8981282F30E081E090E0A6
:1010C000022E02C0880F991F0A94E2F780958423AC
:1010D0008C9357C08D818130A1F4A5E3B0E0E5E3A6
:1010E000F0E08081482F8981282F30E081E090E076
:1010F000022E02C0880F991F0A94E2F7842B8C936A
:1011000040C0A5E3B0E0E5E3F0E08081482F8981AD
:10111000282F30E081E090E0022E02C0880F991F56
:101120000A94E2F7809584238C932BC08D818130C3
:10113000A1F4A2E3B0E0E2E3F0E08081482F8981EE
:10114000282F30E081E090E0022E02C0880F991F26
:101150000A94E2F7842B8C9314C0A2E3B0E0E2E39C
:10116000F0E08081482F8981282F30E081E090E0F5
:10117000022E02C0880F991F0A94E2F780958423FB
:101180008C938B8127960FB6F894DEBF0FBECDBF30
:10119000CF91DF910895DF93CF93CDB7DEB7289736
:1011A0000FB6F894DEBF0FBECDBF8C837E836D83F8
:1011B00082E08B838C81803210F01B8278C08C811E
:1011C0008695869586958A838C81877089838A81A6
:1011D000282F30E038872F834F81588541305105C3
:1011E00059F18F8198858230910534F42F813885AB
:1011F0002115310569F05BC04F815885423051059A
:1012000079F18F8198858330910509F43DC04FC0F5
:10121000E9E3F0E08081282F30E08981882F90E099
:10122000A90102C0559547958A95E2F7CA018170D8
:10123000ED81FE8180833BC0E6E3F0E08081282FD2
:1012400030E08981882F90E0A90102C0559547952B
:101250008A95E2F7CA018170ED81FE81808327C003
:10126000E3E3F0E08081282F30E08981882F90E04F
:10127000A90102C0559547958A95E2F7CA01817088
:10128000ED81FE81808313C0E0E3F0E08081282FB0
:1012900030E08981882F90E0A90102C055954795DB
:1012A0008A95E2F7CA018170ED81FE8180838B818E
:1012B00028960FB6F894DEBF0FBECDBFCF91DF9159
:1012C0000895DF93CF9300D000D00F92CDB7DEB753
:1012D0008A836B8382E089838A81843010F019824B
:1012E00032C08A81282F30E03D832C838C819D8100
:1012F00081309105D1F02C813D81223031052CF4D3
:101300008C819D81009761F01EC02C813D8122302F
:10131000310581F08C819D818330910581F013C06E
:10132000EBE3F0E08B8180830EC0E8E3F0E08B819B
:10133000808309C0E5E3F0E08B81808304C0E2E3B1
:10134000F0E08B81808389810F900F900F900F9038
:101350000F90CF91DF910895DF93CF9300D000D00D
:1013600000D0CDB7DEB78A837C836B8382E089832C
:101370008A81843010F019823AC08A81282F30E0A7
:101380003E832D838D819E8181309105E1F02D81F9
:101390003E81223031052CF48D819E81009761F0D1
:1013A00026C02D813E8122303105A1F08D819E81A4
:1013B00083309105B1F01BC0E9E3F0E08081EB815F
:1013C000FC81808314C0E6E3F0E08081EB81FC8146
:1013D00080830DC0E3E3F0E08081EB81FC818083BA
:1013E00006C0E0E3F0E08081EB81FC8180838981AD
:1013F00026960FB6F894DEBF0FBECDBFCF91DF911A
:101400000895DF93CF9300D000D000D0CDB7DEB7E2
:101410008C8382E08B838C81803210F01B8276C0BB
:101420008C818695869586958A838C818770898341
:101430008A81282F30E03E832D838D819E818130EB
:10144000910549F12D813E81223031052CF48D81A9
:101450009E81009761F05AC02D813E812230310576
:1014600071F18D819E8183309105E9F14FC0A9E32F
:10147000B0E0E9E3F0E08081482F8981282F30E057
:1014800081E090E0022E02C0880F991F0A94E2F7D3
:1014900084278C933BC0A6E3B0E0E6E3F0E08081D4
:1014A000482F8981282F30E081E090E0022E02C091
:1014B000880F991F0A94E2F784278C9327C0A3E32F
:1014C000B0E0E3E3F0E08081482F8981282F30E00D
:1014D00081E090E0022E02C0880F991F0A94E2F783
:1014E00084278C9313C0A0E3B0E0E0E3F0E08081B8
:1014F000482F8981282F30E081E090E0022E02C041
:10150000880F991F0A94E2F784278C938B81269683
:101510000FB6F894DEBF0FBECDBFCF91DF91089517
:10152000DF93CF93CDB7DEB7E8970FB6F894DEBF61
:101530000FBECDBF80E090E0A8E4B2E48DAB9EABDF
:10154000AFABB8AF6DA97EA98FA998AD20E030E010
:101550004AE755E40E941F02DC01CB0189AB9AAB3C
:10156000ABABBCAB69A97AA98BA99CA920E030E000
:1015700040E85FE30E94250488232CF481E090E09A
:1015800098AB8FA73FC069A97AA98BA99CA920E035
:101590003FEF4FE757E40E94C50318164CF56DA9BD
:1015A0007EA98FA998AD20E030E040E251E40E948E
:1015B0001F02DC01CB01BC01CD010E944900DC010E
:1015C000CB0198AB8FA70FC080E991E09EA78DA7B4
:1015D0008DA59EA50197F1F79EA78DA78FA598A928
:1015E000019798AB8FA78FA598A9009769F714C0AA
:1015F00069A97AA98BA99CA90E944900DC01CB01A9
:1016000098AB8FA78FA598A99CA78BA78BA59CA506
:101610000197F1F79CA78BA788E30E94770C80E0E5
:1016200090E0A0E8BFE38FA398A7A9A7BAA76FA1EE
:1016300078A589A59AA520E030E04AE755E40E9404
:101640001F02DC01CB018BA39CA3ADA3BEA36BA1A6
:101650007CA18DA19EA120E030E040E85FE30E94E4
:10166000250488232CF481E090E09AA389A33FC04D
:101670006BA17CA18DA19EA120E03FEF4FE757E435
:101680000E94C50318164CF56FA178A589A59AA5E7
:1016900020E030E040E251E40E941F02DC01CB0177
:1016A000BC01CD010E944900DC01CB019AA389A3B2
:1016B0000FC080E991E098A38F8F8F8D98A101973B
:1016C000F1F798A38F8F89A19AA101979AA389A373
:1016D00089A19AA1009769F714C06BA17CA18DA183
:1016E0009EA10E944900DC01CB019AA389A389A194
:1016F0009AA19E8F8D8F8D8D9E8D0197F1F79E8F74
:101700008D8F8FE00E94770C80E090E0A0E8BFE32F
:10171000898F9A8FAB8FBC8F698D7A8D8B8D9C8DC5
:1017200020E030E04AE755E40E941F02DC01CB01D3
:101730008D8B9E8BAF8BB88F6D897E898F89988DAD
:1017400020E030E040E85FE30E94250488232CF489
:1017500081E090E09C8B8B8B3FC06D897E898F8967
:10176000988D20E03FEF4FE757E40E94C50318161D
:101770004CF5698D7A8D8B8D9C8D20E030E040E2B8
:1017800051E40E941F02DC01CB01BC01CD010E948B
:101790004900DC01CB019C8B8B8B0FC080E991E071
:1017A0009A8B898B89899A890197F1F79A8B898B12
:1017B0008B899C8901979C8B8B8B8B899C8900974B
:1017C00069F714C06D897E898F89988D0E944900C0
:1017D000DC01CB019C8B8B8B8B899C89988B8F87B1
:1017E0008F8598890197F1F7988B8F8781E00E9408
:1017F000770C80E090E0A0E0B0E48B879C87AD8719
:10180000BE876B857C858D859E8520E030E04AE72C
:1018100055E40E941F02DC01CB018F839887A987C2
:10182000BA876F81788589859A8520E030E040E825
:101830005FE30E94250488232CF481E090E09E83DE
:101840008D833FC06F81788589859A8520E03FEF41
:101850004FE757E40E94C50318164CF56B857C854D
:101860008D859E8520E030E040E251E40E941F0219
:10187000DC01CB01BC01CD010E944900DC01CB01A0
:101880009E838D830FC080E991E09C838B838B8145
:101890009C810197F1F79C838B838D819E810197B9
:1018A0009E838D838D819E81009769F714C06F811F
:1018B000788589859A850E944900DC01CB019E8349
:1018C0008D838D819E819A83898389819A810197F5
:1018D000F1F79A83898386E00E94770CE8960FB629
:1018E000F894DEBF0FBECDBFCF91DF910895DF9397
:1018F000CF93CDB7DEB76D970FB6F894DEBF0FBEAE
:10190000CDBF8D8F83E06D8D0E94610988E060E01E
:101910000E94CC0789E060E00E94CC078AE061E089
:101920000E94CC0780E090E0A0E0B0E4898F9A8F1D
:10193000AB8FBC8F698D7A8D8B8D9C8D20E030E0D4
:101940004AE755E40E941F02DC01CB018D8B9E8B80
:10195000AF8BB88F6D897E898F89988D20E030E0BC
:1019600040E85FE30E94250488232CF481E090E0A6
:101970009C8B8B8B3FC06D897E898F89988D20E0F1
:101980003FEF4FE757E40E94C50318164CF5698DE9
:101990007A8D8B8D9C8D20E030E040E251E40E94F6
:1019A0001F02DC01CB01BC01CD010E944900DC011A
:1019B000CB019C8B8B8B0FC080E991E09A8B898B3C
:1019C00089899A890197F1F79A8B898B8B899C89F0
:1019D00001979C8B8B8B8B899C89009769F714C02E
:1019E0006D897E898F89988D0E944900DC01CB0129
:1019F0009C8B8B8B8B899C89988B8F878F85988903
:101A00000197F1F7988B8F878AE060E00E94CC07FE
:101A100080E090E0A0E0B0E48B879C87AD87BE8734
:101A20006B857C858D859E8520E030E04AE755E416
:101A30000E941F02DC01CB018F839887A987BA8798
:101A40006F81788589859A8520E030E040E85FE302
:101A50000E94250488232CF481E090E09E838D83EE
:101A60003FC06F81788589859A8520E03FEF4FE7F9
:101A700057E40E94C50318164CF56B857C858D854F
:101A80009E8520E030E040E251E40E941F02DC012C
:101A9000CB01BC01CD010E944900DC01CB019E833A
:101AA0008D830FC080E991E09C838B838B819C8127
:101AB0000197F1F79C838B838D819E8101979E8393
:101AC0008D838D819E81009769F714C06F81788521
:101AD00089859A850E944900DC01CB019E838D8314
:101AE0008D819E819A83898389819A810197F1F7FB
:101AF0009A8389836D960FB6F894DEBF0FBECDBF73
:101B0000CF91DF910895DF93CF93CDB7DEB76D9777
:101B10000FB6F894DEBF0FBECDBF8D8F83E06D8D05
:101B20000E94610988E060E00E94CC0789E061E0E2
:101B30000E94CC078AE061E00E94CC0780E090E040
:101B4000A0E0B0E4898F9A8FAB8FBC8F698D7A8DBE
:101B50008B8D9C8D20E030E04AE755E40E941F0207
:101B6000DC01CB018D8B9E8BAF8BB88F6D897E890D
:101B70008F89988D20E030E040E85FE30E942504E3
:101B800088232CF481E090E09C8B8B8B3FC06D8987
:101B90007E898F89988D20E03FEF4FE757E40E94C0
:101BA000C50318164CF5698D7A8D8B8D9C8D20E0C0
:101BB00030E040E251E40E941F02DC01CB01BC0195
:101BC000CD010E944900DC01CB019C8B8B8B0FC0A7
:101BD00080E991E09A8B898B89899A890197F1F73D
:101BE0009A8B898B8B899C8901979C8B8B8B8B899A
:101BF0009C89009769F714C06D897E898F89988DBB
:101C00000E944900DC01CB019C8B8B8B8B899C89CA
:101C1000988B8F878F8598890197F1F7988B8F879D
:101C20008AE060E00E94CC0780E090E0A0E0B0E4B1
:101C30008B879C87AD87BE876B857C858D859E85D0
:101C400020E030E04AE755E40E941F02DC01CB01AE
:101C50008F839887A987BA876F81788589859A85C8
:101C600020E030E040E85FE30E94250488232CF464
:101C700081E090E09E838D833FC06F817885898568
:101C80009A8520E03FEF4FE757E40E94C5031816FE
:101C90004CF56B857C858D859E8520E030E040E2AB
:101CA00051E40E941F02DC01CB01BC01CD010E9466
:101CB0004900DC01CB019E838D830FC080E991E058
:101CC0009C838B838B819C810197F1F79C838B8311
:101CD0008D819E8101979E838D838D819E8100974A
:101CE00069F714C06F81788589859A850E944900BB
:101CF000DC01CB019E838D838D819E819A838983B4
:101D000089819A810197F1F79A8389836D960FB63D
:101D1000F894DEBF0FBECDBFCF91DF910895DF9362
:101D2000CF9300D000D0CDB7DEB79B838A836C837E
:101D30008C810E94770C19820DC0EA81FB81808121
:101D40000E94830D8A819B8101969B838A8389816E
:101D50008F5F89838981883080F30F900F900F9077
:101D60000F90CF91DF910895DF93CF93CDB7DEB77A
:101D70002A970FB6F894DEBF0FBECDBF6F8378876A
:101D800089879A872DB73EB72A5030400FB6F8940E
:101D90003EBF0FBE2DBFEDB7FEB731961182108248
:101DA0001382128280E690E0958384838F819885E8
:101DB000A985BA8586839783A087B1870E94D718A3
:101DC0002DB73EB7265F3F4F0FB6F8943EBF0FBE0C
:101DD0002DBFAA2797FDA095BA2F8B839C83AD8337
:101DE000BE838B819C8101960E94D2179A8389833E
:101DF0008B819C819C012F5F3F4F8DB79EB70A97C7
:101E00000FB6F8949EBF0FBE8DBFEDB7FEB73196EB
:101E100089819A81918380833383228380E690E055
:101E2000958384838F819885A985BA8586839783D6
:101E3000A087B1870E94D7182DB73EB7265F3F4FC6
:101E40000FB6F8943EBF0FBE2DBF89819A810E94C4
:101E5000BF0F2A960FB6F894DEBF0FBECDBFCF914D
:101E6000DF910895DF93CF93CDB7DEB760970FB6BC
:101E7000F894DEBF0FBECDBF8F87688B9F858889A2
:101E8000890F81500E94770C80E090E0A0E8BFE3CA
:101E90008B879C87AD87BE876B857C858D859E856E
:101EA00020E030E04AE755E40E941F02DC01CB014C
:101EB0008F839887A987BA876F81788589859A8566
:101EC00020E030E040E85FE30E94250488232CF402
:101ED00081E090E09E838D833FC06F817885898506
:101EE0009A8520E03FEF4FE757E40E94C50318169C
:101EF0004CF56B857C858D859E8520E030E040E249
:101F000051E40E941F02DC01CB01BC01CD010E9403
:101F10004900DC01CB019E838D830FC080E991E0F5
:101F20009C838B838B819C810197F1F79C838B83AE
:101F30008D819E8101979E838D838D819E810097E7
:101F400069F714C06F81788589859A850E94490058
:101F5000DC01CB019E838D838D819E819A83898351
:101F600089819A810197F1F79A83898360960FB6E8
:101F7000F894DEBF0FBECDBFCF91DF910895DF9300
:101F8000CF9300D0CDB7DEB79A8389830AC0E981A9
:101F9000FA8180810E94830D89819A8101969A83BA
:101FA0008983E981FA818081882389F70F900F90D6
:101FB000CF91DF910895DF93CF93CDB7DEB7279709
:101FC0000FB6F894DEBF0FBECDBF8C836D8382E069
:101FD0008B838C81803210F01B82E2C08D8188233C
:101FE00031F08D81813019F081E08B83D9C08C81F3
:101FF0008695869586958A838C81877089838A8168
:10200000282F30E03F832E838E819F818130910580
:1020100009F443C02E813F81223031052CF48E819A
:102020009F81009771F0BCC02E813F812230310525
:1020300009F45FC08E819F818330910509F485C0CA
:10204000AFC08D818130A1F4AAE3B0E0EAE3F0E013
:102050008081482F8981282F30E081E090E0022E96
:1020600002C0880F991F0A94E2F7842B8C9398C0C2
:10207000AAE3B0E0EAE3F0E08081482F8981282FCD
:1020800030E081E090E0022E02C0880F991F0A9490
:10209000E2F7809584238C9383C08D818130A1F4F5
:1020A000A7E3B0E0E7E3F0E08081482F8981282FA3
:1020B00030E081E090E0022E02C0880F991F0A9460
:1020C000E2F7842B8C936CC0A7E3B0E0E7E3F0E089
:1020D0008081482F8981282F30E081E090E0022E16
:1020E00002C0880F991F0A94E2F7809584238C938D
:1020F00057C08D818130A1F4A4E3B0E0E4E3F0E0C7
:102100008081482F8981282F30E081E090E0022EE5
:1021100002C0880F991F0A94E2F7842B8C9340C069
:10212000A4E3B0E0E4E3F0E08081482F8981282F28
:1021300030E081E090E0022E02C0880F991F0A94DF
:10214000E2F7809584238C932BC08D818130A1F49C
:10215000A1E3B0E0E1E3F0E08081482F8981282FFE
:1021600030E081E090E0022E02C0880F991F0A94AF
:10217000E2F7842B8C9314C0A1E3B0E0E1E3F0E03C
:102180008081482F8981282F30E081E090E0022E65
:1021900002C0880F991F0A94E2F7809584238C93DC
:1021A0008B8127960FB6F894DEBF0FBECDBFCF91BF
:1021B000DF910895DF93CF93CDB7DEB72F970FB69A
:1021C000F894DEBF0FBECDBF8C836D8382E08B831E
:1021D0008C81803210F01B8231C38D81882349F0BD
:1021E0008D81813031F08D81823019F083E08B83D5
:1021F00025C38C818695869586958A838C81877088
:1022000089838A81282F30E03F872E878E859F859E
:102210008130910509F4D6C02E853F8522303105E5
:102220002CF48E859F85009771F008C32E853F851D
:102230002230310509F485C18E859F858330910553
:1022400009F43EC2FBC28D81282F30E03D872C87E8
:102250008C859D858130910509F43FC02C853D8595
:10226000223031052CF48C859D85009771F0E6C2F3
:102270002C853D852230310509F456C08C859D851D
:102280008330910509F476C0D9C2AAE3B0E0EAE34D
:10229000F0E08081482F8981282F30E081E090E0B4
:1022A00002C0880F991F2A95E2F7809584238C93AA
:1022B000ABE3B0E0EBE3F0E08081482F8981282F89
:1022C00030E081E090E0022E02C0880F991F0A944E
:1022D000E2F7809584238C93B1C2AAE3B0E0EAE3ED
:1022E000F0E08081482F8981282F30E081E090E064
:1022F00002C0880F991F2A95E2F7809584238C935A
:10230000ABE3B0E0EBE3F0E08081482F8981282F38
:1023100030E081E090E0022E02C0880F991F0A94FD
:10232000E2F7842B8C938AC2AAE3B0E0EAE3F0E000
:102330008081482F8981282F30E081E090E002C021
:10234000880F991F2A95E2F7842B8C93ABE3B0E0BA
:10235000EBE3F0E08081482F8981282F30E081E095
:1023600090E0022E02C0880F991F0A94E2F7842B96
:102370008C9364C2AAE3B0E0EAE3F0E08081482FE6
:102380008981282F30E081E090E002C0880F991FFA
:102390002A95E2F7809584238C93ABE3B0E0EBE3DE
:1023A000F0E08081482F8981282F30E081E090E0A3
:1023B000022E02C0880F991F0A94E2F780958423A9
:1023C0008C933CC28D81282F30E03B872A878A85F9
:1023D0009B858130910509F43FC02A853B852230D9
:1023E00031052CF48A859B85009771F027C22A85D8
:1023F0003B852230310509F456C08A859B858330A0
:10240000910509F476C01AC2A7E3B0E0E7E3F0E073
:102410008081482F8981282F30E081E090E002C040
:10242000880F991F2A95E2F7809584238C93A8E35F
:10243000B0E0E8E3F0E08081482F8981282F30E088
:1024400081E090E0022E02C0880F991F0A94E2F703
:10245000809584238C93F2C1A7E3B0E0E7E3F0E03A
:102460008081482F8981282F30E081E090E002C0F0
:10247000880F991F2A95E2F7809584238C93A8E30F
:10248000B0E0E8E3F0E08081482F8981282F30E038
:1024900081E090E0022E02C0880F991F0A94E2F7B3
:1024A000842B8C93CBC1A7E3B0E0E7E3F0E080811D
:1024B000482F8981282F30E081E090E002C0880F0A
:1024C000991F2A95E2F7842B8C93A8E3B0E0E8E308
:1024D000F0E08081482F8981282F30E081E090E072
:1024E000022E02C0880F991F0A94E2F7842B8C9366
:1024F000A5C1A7E3B0E0E7E3F0E08081482F898140
:10250000282F30E081E090E002C0880F991F2A95C3
:10251000E2F7809584238C93A8E3B0E0E8E3F0E051
:102520008081482F8981282F30E081E090E0022EC1
:1025300002C0880F991F0A94E2F7809584238C9338
:102540007DC18D81282F30E039872887888599853E
:102550008130910509F43FC0288539852230310545
:102560002CF488859985009771F068C12885398594
:102570002230310509F456C088859985833091054C
:1025800009F476C05BC1A4E3B0E0E4E3F0E080814D
:10259000482F8981282F30E081E090E002C0880F29
:1025A000991F2A95E2F7809584238C93A5E3B0E0E8
:1025B000E5E3F0E08081482F8981282F30E081E039
:1025C00090E0022E02C0880F991F0A94E2F78095CE
:1025D00084238C9333C1A4E3B0E0E4E3F0E0808192
:1025E000482F8981282F30E081E090E002C0880FD9
:1025F000991F2A95E2F7809584238C93A5E3B0E098
:10260000E5E3F0E08081482F8981282F30E081E0E8
:1026100090E0022E02C0880F991F0A94E2F7842BE3
:102620008C930CC1A4E3B0E0E4E3F0E08081482F98
:102630008981282F30E081E090E002C0880F991F47
:102640002A95E2F7842B8C93A5E3B0E0E5E3F0E074
:102650008081482F8981282F30E081E090E0022E90
:1026600002C0880F991F0A94E2F7842B8C93E6C06E
:10267000A4E3B0E0E4E3F0E08081482F8981282FD3
:1026800030E081E090E002C0880F991F2A95E2F7C0
:10269000809584238C93A5E3B0E0E5E3F0E08081AE
:1026A000482F8981282F30E081E090E0022E02C07F
:1026B000880F991F0A94E2F7809584238C93BEC0FB
:1026C0008D81282F30E03F832E838E819F81813042
:1026D000910509F43FC02E813F81223031052CF451
:1026E0008E819F81009771F0A9C02E813F81223099
:1026F000310509F456C08E819F818330910509F41C
:1027000076C09CC0A1E3B0E0E1E3F0E08081482F17
:102710008981282F30E081E090E002C0880F991F66
:102720002A95E2F7809584238C93A2E3B0E0E2E35C
:10273000F0E08081482F8981282F30E081E090E00F
:10274000022E02C0880F991F0A94E2F78095842315
:102750008C9374C0A1E3B0E0E1E3F0E08081482F06
:102760008981282F30E081E090E002C0880F991F16
:102770002A95E2F7809584238C93A2E3B0E0E2E30C
:10278000F0E08081482F8981282F30E081E090E0BF
:10279000022E02C0880F991F0A94E2F7842B8C93B3
:1027A0004DC0A1E3B0E0E1E3F0E08081482F8981F2
:1027B000282F30E081E090E002C0880F991F2A9511
:1027C000E2F7842B8C93A2E3B0E0E2E3F0E08081B7
:1027D000482F8981282F30E081E090E0022E02C04E
:1027E000880F991F0A94E2F7842B8C9327C0A1E3EA
:1027F000B0E0E1E3F0E08081482F8981282F30E0CC
:1028000081E090E002C0880F991F2A95E2F7809539
:1028100084238C93A2E3B0E0E2E3F0E08081482FD0
:102820008981282F30E081E090E0022E02C0880FDD
:10283000991F0A94E2F7809584238C938B812F96BD
:102840000FB6F894DEBF0FBECDBFCF91DF910895D4
:10285000DF93CF9300D000D000D0CDB7DEB79C83FC
:102860008B837E836D8381E090E09A83898313C09C
:1028700029813A818B819C81AC01249FC001259FD5
:10288000900D349F900D11249A8389838D819E81B0
:1028900001979E838D838D819E811816190644F3BE
:1028A00089819A8126960FB6F894DEBF0FBECDBF00
:1028B000CF91DF910895DF93CF93CDB7DEB72A97FD
:1028C0000FB6F894DEBF0FBECDBF98878F837A878F
:1028D00069871E821D8289859A8501979C838B83D7
:1028E0002FC02D813E818F819885FC01E20FF31F5F
:1028F0008081882F90E09A8389832D813E818F810A
:102900009885DC01A20FB31F2B813C818F819885B4
:10291000FC01E20FF31F80818C932B813C818F811E
:102920009885FC01E20FF31F898180838D819E8150
:1029300001969E838D838B819C8101979C838B83E1
:102940002D813E818B819C812817390754F22A966C
:102950000FB6F894DEBF0FBECDBFCF91DF910895C3
:10296000DF93CF93CDB7DEB728970FB6F894DEBFCD
:102970000FBECDBF9C838B837E836D8358874F832F
:102980001A8219821FC029813A818D819E81FC01A2
:10299000E20FF31F8B819C812AE030E0B9010E9495
:1029A0007417805D808389819A8101969A838983D7
:1029B0008B819C812AE030E0B9010E947417CB0121
:1029C0009C838B838B819C810097E9F60EC02981C3
:1029D0003A818D819E81FC01E20FF31F80E38083A9
:1029E00089819A8101969A83898329813A818F818D
:1029F0009885281739075CF38D819E8129813A815A
:102A0000B9010E945B1429813A818D819E81FC016C
:102A1000E20FF31F108289819A8128960FB6F894ED
:102A2000DEBF0FBECDBFCF91DF910895DF93CF936F
:102A3000CDB7DEB760970FB6F894DEBF0FBECDBF3F
:102A400069877A878B879C875E874D87388B2F872E
:102A500069857A858B859C850E94B304DC01CB0156
:102A600098878F838F819885AA2797FDA095BA2F85
:102A7000BC01CD010E9455049B01AC0169857A859A
:102A80008B859C850E94C101DC01CB018B839C83DB
:102A9000AD83BE838F8198852D853E85B90140E049
:102AA00050E00E94B0149A8389838F85988900979B
:102AB000F1F129813A818D859E85FC01E20FF31F9A
:102AC0008EE280832F8538898AE090E0B9010E94E8
:102AD0002814AA2797FDA095BA2FBC01CD010E940A
:102AE00055049B01AC016B817C818D819E810E948C
:102AF0001F02DC01CB018B839C83AD83BE836B8182
:102B00007C818D819E810E94B304DC01CB01BC01DC
:102B100089819A819C012F5F3F4F8D859E85280F6B
:102B2000391F4F855889CB01B9010E94B0146096B6
:102B30000FB6F894DEBF0FBECDBFCF91DF910895E1
:102B4000DF93CF93CDB7DEB7AF970FB6F894DEBF64
:102B50000FBECDBF1EA21DA21E8E81E08D8F81E013
:102B60008FA788E161E00E94DB0F89E161E00E94AC
:102B7000DB0F8AE161E00E94DB0F8BE161E00E94E4
:102B8000DB0F8CE161E00E94DB0F8DE161E00E94D0
:102B9000DB0F8EE161E00E94DB0F8FE161E00E94BC
:102BA000DB0F88E061E00E94DB0F89E061E00E94BA
:102BB000DB0F8AE061E00E94DB0F80E060E00E94B2
:102BC000DB0F81E061E00E94DA100E9475070E942D
:102BD000900A81E00E94770C84E690E00E94BF0F8B
:102BE0009E01215D3F4F81E0B9010E94CB0880E04A
:102BF00090E0A0E2B1E4898F9A8FAB8FBC8F698D92
:102C00007A8D8B8D9C8D20E030E04AE755E40E9460
:102C10001F02DC01CB018D8B9E8BAF8BB88F6D8932
:102C20007E898F89988D20E030E040E85FE30E9444
:102C3000250488232CF481E090E09C8B8B8B3FC093
:102C40006D897E898F89988D20E03FEF4FE757E4AB
:102C50000E94C50318164CF5698D7A8D8B8D9C8D5D
:102C600020E030E040E251E40E941F02DC01CB0191
:102C7000BC01CD010E944900DC01CB019C8B8B8BF8
:102C80000FC080E991E09A8B898B89899A89019795
:102C9000F1F79A8B898B8B899C8901979C8B8B8B05
:102CA0008B899C89009769F714C06D897E898F890B
:102CB000988D0E944900DC01CB019C8B8B8B8B890A
:102CC0009C89988B8F878F8598890197F1F7988BCE
:102CD0008F878FA5882339F48E8D813011F41E8E55
:102CE00002C081E08E8FCE0185960E948A078DA159
:102CF0009EA1880F991F880F991F9EA38DA38DA158
:102D00009EA1CC01A0E0B0E0BC01CD010E9407056E
:102D1000DC01CB01BC01CD0120E030E04AE754E406
:102D20000E941903DC01CB018F8F98A3A9A3BAA33A
:102D30008F8D98A1A9A1BAA19E01295D3F4FBC0129
:102D4000CD01A90124E030E00E9416158E8D882364
:102D5000A1F48D8D813089F480EC6DE00E94320FFA
:102D60008DE690E00E94BF0F80EC6DE00E94320F74
:102D700088E790E00E94BF0F16C08E8D813099F4D5
:102D80008D8D882381F480EC6DE00E94320F8DE6FA
:102D900090E00E94BF0F80EC6DE00E94320F8DE743
:102DA00090E00E94BF0F2DA13EA18BA19CA12817EE
:102DB000390721F49E8D8D8D9817E9F080E869E040
:102DC0000E94320F8DE690E00E94BF0F80E869E01C
:102DD0000E94320F8E8D882351F48DA19EA1CC01CB
:102DE000A0E0B0E0BC01CD010E94B40E04C0CE0151
:102DF00087960E94BF0F8DA19EA19CA38BA38E8D51
:102E00008D8F80E090E0A0E2B1E48B879C87AD8756
:102E1000BE876B857C858D859E8520E030E04AE706
:102E200055E40E941F02DC01CB018F839887A9879C
:102E3000BA876F81788589859A8520E030E040E8FF
:102E40005FE30E94250488232CF481E090E09E83B8
:102E50008D833FC06F81788589859A8520E03FEF1B
:102E60004FE757E40E94C50318164CF56B857C8527
:102E70008D859E8520E030E040E251E40E941F02F3
:102E8000DC01CB01BC01CD010E944900DC01CB017A
:102E90009E838D830FC080E991E09C838B838B811F
:102EA0009C810197F1F79C838B838D819E81019793
:102EB0009E838D838D819E81009769F791CE6F816E
:102EC000788589859A850E944900DC01CB019E8323
:102ED0008D838D819E819A83898389819A810197CF
:102EE000F1F79A8389837CCE97FB092E07260AD0B7
:102EF00077FD04D00CD006D000201AF470956195AF
:102F00007F4F0895F6F7909581959F4F0895AA1BDE
:102F1000BB1B51E107C0AA1FBB1FA617B70710F0C4
:102F2000A61BB70B881F991F5A95A9F780959095F6
:102F3000BC01CD0108952F923F924F925F926F9204
:102F40007F928F929F92AF92BF92CF92DF92EF9239
:102F5000FF920F931F93CF93DF93CDB7DEB7CA1BBA
:102F6000DB0B0FB6F894DEBF0FBECDBF09942A88E5
:102F7000398848885F846E847D848C849B84AA848D
:102F8000B984C884DF80EE80FD800C811B81AA811A
:102F9000B981CE0FD11D0FB6F894DEBF0FBECDBFE5
:102FA000ED010895CF93DF93BC018230910510F4B9
:102FB00062E070E0A0919001B0919101ED01E0E03C
:102FC000F0E040E050E021C08881998186179707A2
:102FD00069F48A819B81309719F09383828304C0BE
:102FE0009093910180939001FE0134C06817790796
:102FF00038F44115510519F08417950708F4AC0110
:10300000FE018A819B819C01E9012097E9F6411527
:103010005105A9F1CA01861B970B049708F4BA0160
:10302000E0E0F0E02AC08D919C91119784179507FC
:10303000F9F46417750781F412968D919C9113979A
:10304000309719F09383828304C090939101809309
:103050009001FD0132964FC0CA01861B970BFD01FE
:10306000E80FF91F6193719302978D939C9343C06E
:10307000FD01828193819C01D9011097A1F6809175
:103080008E0190918F01892B41F480918A0190915A
:103090008B0190938F0180938E0140918C01509110
:1030A0008D014115510541F44DB75EB780918801FE
:1030B00090918901481B590B20918E0130918F010D
:1030C00024173507B0F4CA01821B930B86179707A4
:1030D00080F0AB014E5F5F4F8417950750F0420FB1
:1030E000531F50938F0140938E01F90161937193A7
:1030F00002C0E0E0F0E0CF01DF91CF910895CF93DF
:10310000DF93009709F450C0EC0122971B821A82CA
:10311000A0919001B0919101109709F140E050E029
:10312000AC17BD0708F1BB83AA83FE012191319141
:10313000E20FF31FAE17BF0779F48D919C911197A1
:10314000280F391F2E5F3F4F3983288312968D91A8
:103150009C9113979B838A834115510571F4D093F9
:103160009101C093900120C012968D919C9113976C
:10317000AD01009711F0DC01D3CFFA01D383C283F4
:1031800021913191E20FF31FCE17DF0769F4888197
:103190009981280F391F2E5F3F4FFA013183208319
:1031A0008A819B8193838283DF91CF910895AEE0E2
:1031B000B0E0EDEDF8E10C94A9170D891E898F8917
:1031C000988D97FF02C080E090E801979E838D83E1
:1031D0001A83098386E08C839E01255E3F4FCE01D2
:1031E0000196698D7A8DA9010E9408194D815E8131
:1031F00057FD0AC02F813885421753070CF49A01F6
:10320000020F131FF80110822E96E4E00C94C517EC
:10321000ABE0B0E0EEE0F9E10C949B173C012B0130
:103220005A01FC0117821682838181FD03C06FEF72
:103230007FEFC6C19AE0892E1E010894211C311C23
:10324000F3012381F20123FD859123FF81912F0159
:10325000882309F4B2C1853239F423FD859123FF17
:1032600081912F01853229F490E0B3010E94FB1A6D
:10327000E7CF982FFF24EE249924FFE1FF15D0F02B
:103280009B3269F09C3228F4903259F0933291F4D9
:103290000EC09D3249F0903369F441E024C052E001
:1032A000F52A84E0F82A28C098E0F92A25C0E0E150
:1032B000FE2A22C0F7FC29C0892F80538A3070F47F
:1032C000F6FE05C0989C902C1124980E15C0E89C21
:1032D000E02C1124E80EF0E2FF2A0EC09E3229F401
:1032E000F6FC6BC140E4F42A07C09C3619F450E8A0
:1032F000F52A02C0983649F4F20123FD959123FF87
:1033000091912F01992309F0B8CF892F85548330EB
:1033100018F08052833038F444E050E0A40EB51E1B
:103320005FE359830FC0933631F0933779F09335CB
:1033300009F056C020C0F5018081898342E050E049
:10334000A40EB51E610101E010E012C0F501C080BD
:10335000D180F6FC03C06FEF7FEF02C0692D70E0F3
:1033600042E050E0A40EB51EC6010E94F01A8C0186
:103370005FE7F52214C0F501C080D180F6FC03C0E0
:103380006FEF7FEF02C0692D70E042E050E0A40EC5
:10339000B51EC6010E94E51A8C0150E8F52AF3FE1D
:1033A00007C01AC080E290E0B3010E94FB1AEA94C1
:1033B0008E2D90E008171907A8F30EC0F601F7FC50
:1033C0008591F7FE81916F0190E0B3010E94FB1A95
:1033D000E110EA94015010400115110579F7EAC097
:1033E000943611F0993669F5F7FE08C0F501208191
:1033F00031814281538184E090E00AC0F5018081EF
:1034000091819C01442737FD4095542F82E090E044
:10341000A80EB91E9FE6F92257FF09C050954095A6
:10342000309521953F4F4F4F5F4FE0E8FE2ACA018C
:10343000B901A1012AE030E00E94271BD82ED21842
:1034400040C0953729F41F2D1F7E2AE030E01DC0B3
:103450001F2D197F9F3661F0903720F4983509F0C1
:10346000ACC00FC0903739F0983709F0A6C004C03F
:1034700028E030E00AC0106114FD146020E130E063
:1034800004C014FD166020E132E017FF08C0F5010A
:10349000608171818281938144E050E008C0F50130
:1034A00080819181BC0180E090E042E050E0A40E78
:1034B000B51EA1010E94271BD82ED2188FE7F82E27
:1034C000F122F6FE0BC05EEFF522D91438F4F4FEBB
:1034D00007C0F2FC05C08FEEF82202C01D2D01C00E
:1034E000192DF4FE0DC0FE01ED0DF11D808180331C
:1034F00019F499EEF92208C01F5FF2FE05C003C05F
:103500008F2D867809F01F5F0F2DF3FC14C0F0FE9D
:103510000FC01E1510F09D2C0BC09D2C9E0C911AF7
:103520001E2D06C080E290E0B3010E94FB1A1F5FCF
:103530001E15C0F304C01E1510F4E11A01C0EE24DC
:1035400004FF0FC080E390E0B3010E94FB1A02FF6A
:103550001DC001FD03C088E790E00EC088E590E043
:103560000BC0802F867891F001FF02C08BE201C072
:1035700080E2F7FC8DE290E0B3010E94FB1A06C0E6
:1035800080E390E0B3010E94FB1A9A94D914C0F32F
:10359000DA94F101ED0DF11D808190E0B3010E94FC
:1035A000FB1ADD20A9F706C080E290E0B3010E947B
:1035B000FB1AEA94EE20C1F743CEF30166817781CE
:1035C000CB012B96E2E10C94B717FC0105906150FA
:1035D00070400110D8F7809590958E0F9F1F089529
:1035E000FC016150704001900110D8F780959095D2
:1035F0008E0F9F1F08950F931F93CF93DF938C011E
:10360000EB018B8181FF1BC082FF0DC02E813F81AA
:103610008C819D812817390764F4E881F981019331
:10362000F983E88306C0E885F985802F0995892B01
:1036300031F48E819F8101969F838E8302C00FEFAC
:103640001FEFC801DF91CF911F910F910895FA01EB
:10365000AA27283051F1203181F1E8946F936E7FD1
:103660006E5F7F4F8F4F9F4FAF4FB1E03ED0B4E0C2
:103670003CD0670F781F891F9A1FA11D680F791F03
:103680008A1F911DA11D6A0F711D811D911DA11D14
:1036900020D009F468943F912AE0269F1124301924
:1036A000305D3193DEF6CF010895462F4770405DBF
:1036B0004193B3E00FD0C9F7F6CF462F4F70405D6E
:1036C0004A3318F0495D31FD4052419302D0A9F7C9
:1036D000EACFB4E0A6959795879577956795BA95C3
:1036E000C9F700976105710508959B01AC010A2E89
:1036F00006945795479537952795BA95C9F7620F60
:0E370000731F841F951FA01D0895F894FFCF1E
:10370E00256C6400566F6C746167653D0020202047
:10371E002020202020202000566F6C74006D560053
:10372E00000000000000000000010202030303037A
:10373E000404040404040404050505050505050533
:10374E000505050505050505060606060606060613
:10375E0006060606060606060606060606060606FB
:10376E0006060606060606060707070707070707E3
:10377E0007070707070707070707070707070707CB
:10378E0007070707070707070707070707070707BB
:10379E0007070707070707070707070707070707AB
:1037AE000707070707070707080808080808080893
:1037BE00080808080808080808080808080808087B
:1037CE00080808080808080808080808080808086B
:1037DE00080808080808080808080808080808085B
:1037EE00080808080808080808080808080808084B
:1037FE00080808080808080808080808080808083B
:10380E00080808080808080808080808080808082A
:10381E00080808080808080808080808080808081A
:0E382E00080808080808080820009201000099
:00000001FF
